:020000040800F2
:1000000000280020CD0800080D0800081508000889
:100010001D080008250800082D0800080000000041
:10002000000000000000000000000000A1370008F0
:10003000350800080000000081390008C9390008AF
:100040001509000815090008150900081509000818
:100050001509000815090008150900081509000808
:1000600015090008150900081509000815090008F8
:1000700015090008150900081509000815090008E8
:1000800015090008150900081509000815090008D8
:1000900015090008150900081509000815090008C8
:1000A000150900084108000815090008150900088D
:1000B00015090008150900080000000015090008CE
:1000C00015090008000000000000000015090008E4
:1000D00000000000150900081509000800000000D4
:1000E000150900081509000815090008000000009E
:1000F0000000000000000000000000000000000000
:0C01000000000000000000005FF808F1A3
:1001100010B5054C237833B9044B13B10448AFF341
:1001200000800123237010BD60000020000000004B
:100130008847000808B5034B1BB103490348AFF3D8
:10014000008008BD0000000064000020884700080F
:10015000034613F8012B002AFBD1181A0138704707
:1001600080B485B000AFF860B9607A60FB68064A79
:100170001A60BB68054A1A607B6880221A6000BF5B
:100180001437BD4680BC70477C000020D0000020A2
:10019000B0B58CB002AF00F0BFFB00F08DF800F0FE
:1001A000F5F800F0C9F800220C21022002F06CF8EA
:1001B0000346314A1360314B7B62786AFFF7C8FF10
:1001C00003469AB24FF0FF33796A2D4801F0F0FCF4
:1001D000294B1B68002B0DD12A4BFB61F869FFF7F7
:1001E000B7FF03469AB24FF0FF33F969244801F094
:1001F000DFFC0CE0244B3B62386AFFF7A9FF0346A3
:100200009AB24FF0FF33396A1D4801F0D1FC1F4B01
:10021000019302230093002380221D491D4802F010
:10022000E1FB1D4B019302230093002380221B4915
:100230001B4802F0D7FB1B4B0193012300930023C3
:1002400080221949194802F0CDFB02F039FD184B04
:100250003C461D460FCD0FC495E8070084E8070013
:100260003B460021184601F095FE0346114A1360F3
:1002700001F089FE00BFFDE71C030020A047000835
:10028000D0020020B0470008D44700082003002017
:10029000E8470008B903000824030020F0470008DD
:1002A0007D04000828030020F847000841050008E5
:1002B000104800081803002080B590B000AF07F187
:1002C000180328220021184603F0D0FD3B1D002210
:1002D0001A605A609A60DA601A610223BB610123D6
:1002E000BB621023FB6202237B630023BB634FF4DA
:1002F0000023FB6307F11803184600F09BFD03463B
:10030000002B01D000F086F90F237B600223BB6035
:100310000023FB6000233B6100237B613B1D002128
:10032000184601F009F80346002B01D000F072F9DD
:1003300000BF4037BD4680BD80B500AF114B124AAB
:100340001A60104B4FF416525A600E4B00229A60FE
:100350000C4B0022DA600B4B00221A61094B0C2275
:100360005A61084B00229A61064B0022DA61054867
:1003700001F0CEFB0346002B01D000F04BF900BF8B
:1003800080BD00BFD00200200038014080B483B09F
:1003900000AF084B9B69074A43F004039361054B88
:1003A0009B6903F004037B607B6800BF0C37BD468C
:1003B00080BC70470010024080B586B000AF786006
:1003C0004FF4FA637B61274B3B613869FFF7C0FE4E
:1003D00003469AB24FF0FF333969234801F0E8FB36
:1003E0000C2003F035FB0346BB60204B1A68BB684A
:1003F00001325A601D4B1B689BB21A46920013448F
:100400001A4691001A460B4613449B009AB2BB68E9
:1004100002F57A7292B21A81BB68154A1A60154BBE
:10042000186807F1080100234FF0FF3201F086FF42
:100430000346012B0CD1104BFB60F868FFF788FED8
:1004400003469AB24FF0FF33F968074801F0B0FB5A
:10045000064B1B680133054A1360786902F0FAFB0A
:10046000B1E700BF2C480008D00200202C03002078
:10047000444800081C0300205848000880B586B096
:1004800000AF78604FF4FA637B61274B3B613869BA
:10049000FFF75EFE03469AB24FF0FF3339692348F7
:1004A00001F086FB0C2003F0D3FA0346BB60204B1F
:1004B0001A68BB6801325A601D4B1B689BB21A4612
:1004C000920013441A4691001A460B461344DB006F
:1004D0009AB2BB6802F5FA6292B21A81BB68154AF9
:1004E0001A60154B186807F1080100234FF0FF321E
:1004F00001F024FF0346012B0CD1104BFB60F86880
:10050000FFF726FE03469AB24FF0FF33F96807481B
:1005100001F04EFB064B1B680133054A13607869F6
:1005200002F098FBB1E700BF90480008D00200201D
:1005300030030020A84800081C030020BC48000825
:1005400080B588B002AF786040F6B8337B61204B4D
:100550003B613869FFF7FCFD03469AB24FF0FF3369
:1005600039691C4801F024FB1B4B1B6807F108018B
:100570004FF0FF32184601F0E3FF0346012B1ED176
:10058000642003F065FAF860BB685A68BB681B8991
:100590001946BB681B6800930B461049F86803F0C6
:1005A00043FCF868FFF7D4FD03469AB24FF0FF33DF
:1005B000F968084801F0FCFAF86803F017FBBB681B
:1005C000184603F013FB786902F044FBBFE700BF55
:1005D000F4480008D00200201C0300200C49000849
:1005E00080B582B000AF7860012001F01FFDFBE70D
:1005F00080B582B000AF78607B681B68044A934284
:1006000001D100F09FF900BF0837BD4680BD00BF93
:10061000002C014080B400AF72B600BF00BFFDE700
:1006200080B584B000AF184B9B69174A43F00103B3
:100630009361154B9B6903F00103BB60BB68124BD0
:10064000DB69114A43F08053D3610F4BDB6903F040
:1006500080537B607B6800220F216FF0010000F067
:1006600042FA0A4B5B68FB60FB6823F0E063FB60C7
:10067000FB6843F08063FB60044AFB68536000BF83
:100680001037BD4680BD00BF001002400000014091
:1006900080B588B000AF786007F1100300221A60BF
:1006A0005A609A60DA607B681B681C4A934231D1B9
:1006B0001B4B9B691A4A43F480439361184B9B6917
:1006C00003F48043FB60FB68154B9B69144A43F0BD
:1006D00004039361124B9B6903F00403BB60BB6886
:1006E0004FF400733B6102237B610323FB6107F13D
:1006F000100319460B4800F021FA4FF480633B6168
:1007000000237B610023BB6107F1100319460548F4
:1007100000F014FA00BF2037BD4680BD003801400C
:10072000001002400008014080B58CB000AF786036
:100730000023BB6200237B62002387F82F302E4BFF
:100740009B692D4A43F4006393612B4B9B6903F42F
:100750000063BB60BB6807F10C0207F11003114690
:10076000184600F059FF00F043FFB862BB6A234A05
:10077000A2FB03239B0C013B7B62214B214A1A60A5
:100780001F4B40F2E732DA601D4A7B6A53601C4B14
:1007900000221A611A4B00229A60194B00229A61BA
:1007A000174800F087FF034687F82F3097F82F305F
:1007B000002B1BD1124800F0D5FF034687F82F30DD
:1007C00097F82F30002B11D1192000F0A8F97B6881
:1007D0000F2B08D800227968192000F084F90A4A02
:1007E0007B68136002E0012387F82F3097F82F30E1
:1007F00018463037BD4680BD0010024083DE1B43E3
:1008000034030020002C01400400002080B400AF1D
:1008100000BFFDE780B400AF00BFFDE780B400AFCC
:1008200000BFFDE780B400AF00BFFDE780B400AFBC
:1008300000BFFDE780B400AF00BFBD4680BC70477D
:1008400080B500AF024800F0D9FF00BF80BD00BFF7
:100850003403002080B586B000AF7860144A154B91
:10086000D31A7B617B693B61134B1B68002B02D160
:10087000114B124A1A60104B1A687B6813443A698C
:100880009A4207D203F0FAFA03460C221A604FF09C
:10089000FF3309E0084B1B68FB60074B1A687B6855
:1008A0001344054A1360FB6818461837BD4680BDDF
:1008B00000280020000400007C03002020120020FB
:1008C00080B400AF00BFBD4680BC7047FFF7F8FFA3
:1008D0000B480C490C4A002302E0D458C45004339E
:1008E000C4188C42F9D3094A094C002301E0136073
:1008F0000432A242FBD303F0C7FAFFF749FC70476A
:100900000000002060000020C849000860000020AE
:1009100020120020FEE7000080B500AF084B1B68E6
:10092000074A43F010031360032000F0D1F80F20B2
:10093000FFF7FAFEFFF774FE0023184680BD00BFE4
:100940000020024080B400AF054B1B781A46054BCF
:100950001B681344034A136000BFBD4680BC704748
:10096000080000208003002080B400AF024B1B6809
:100970001846BD4680BC70478003002080B485B017
:1009800000AF78607B6803F00703FB600C4BDB680B
:10099000BB60BA684FF6FF031340BB60FB681A02E6
:1009A000BB68134343F0BF6343F40033BB60044AA6
:1009B000BB68D36000BF1437BD4680BC704700BF22
:1009C00000ED00E080B400AF044BDB681B0A03F0CD
:1009D00007031846BD4680BC704700BF00ED00E02D
:1009E00080B483B000AF0346FB7197F90730002B4A
:1009F0000BDBFB7903F01F02064997F907305B090F
:100A0000012000FA02F241F8232000BF0C37BD4656
:100A100080BC704700E100E080B483B000AF0346C3
:100A20003960FB7197F90730002B0ADB3B68DAB2BB
:100A30000C4997F907301201D2B20B4483F8002316
:100A40000AE03B68DAB20849FB7903F00F03043B84
:100A50001201D2B20B441A7600BF0C37BD4680BCDF
:100A6000704700BF00E100E000ED00E080B489B015
:100A700000AFF860B9607A60FB6803F00703FB61C0
:100A8000FB69C3F10703042B28BF0423BB61FB6987
:100A90000433062B02D9FB69033B00E000237B6192
:100AA0004FF0FF32BB6902FA03F3DA43BB681A4026
:100AB0007B699A404FF0FF317B6901FA03F3D94318
:100AC0007B680B40134318462437BD4680BC7047F3
:100AD00080B582B000AF78607868FFF74FFF00BF45
:100AE0000837BD4680BD80B586B000AF0346B9600B
:100AF0007A60FB7300237B61FFF764FF78617A689B
:100B0000B9687869FFF7B2FF024697F90F301146CE
:100B10001846FFF781FF00BF1837BD4680BD80B57E
:100B200082B000AF0346FB7197F907301846FFF714
:100B300057FF00BF0837BD4680BD000080B48BB0B2
:100B400000AF7860396000237B6200233B6261E183
:100B500001227B6A02FA03F3FB613B681B68FA69B6
:100B60001340BB61BA69FB699A4240F050813B680F
:100B70005B68974A93425ED0954A934275D8954AEE
:100B8000934258D0934A93426FD8934A934252D09B
:100B9000914A934269D8914A93424CD08F4A9342EA
:100BA00063D88F4A934246D08D4A93425DD8122B28
:100BB0002AD8122B59D801A252F823F0370C00087A
:100BC000110C0008230C0008650C00086B0C0008D1
:100BD0006B0C00086B0C00086B0C00086B0C000819
:100BE0006B0C00086B0C00086B0C00086B0C000809
:100BF0006B0C00086B0C00086B0C00086B0C0008F9
:100C0000190C00082D0C0008764A934213D02CE0F2
:100C10003B68DB683B6229E03B68DB6804333B628E
:100C200024E03B68DB6808333B621FE03B68DB681D
:100C30000C333B621AE03B689B68002B02D1042313
:100C40003B6213E03B689B68012B05D108233B62A4
:100C50007B68FA691A6109E008233B627B68FA69DC
:100C60005A6103E000233B6200E000BFBB69FF2B39
:100C700001D87B6801E07B6804337B61BB69FF2B93
:100C800002D87B6A9B0002E07B6A083B9B003B61C9
:100C90007B691A680F213B6901FA03F3DB431A40B1
:100CA000396A3B6901FA03F31A437B691A603B68AE
:100CB0005B6803F08053002B00F0A9804A4B9B69CE
:100CC000494A43F001039361474B9B6903F00103D9
:100CD000BB60BB68454A7B6A9B08023352F82330ED
:100CE000FB607B6A03F003039B000F2202FA03F30D
:100CF000DB43FA681340FB607B683D4A93420DD0AA
:100D00007B683C4A934207D07B683B4A934201D1BF
:100D1000022304E0032302E0012300E000237A6AB7
:100D200002F0030292009340FA681343FB602F49DC
:100D30007B6A9B080233FA6841F823203B685B68B2
:100D400003F48013002B06D02C4B9A682B49BB6907
:100D500013438B6006E0294B9A68BB69DB43274944
:100D600013408B603B685B6803F40013002B06D0D4
:100D7000224BDA682149BB691343CB6006E01F4B65
:100D8000DA68BB69DB431D491340CB603B685B6895
:100D900003F40033002B06D0184B5A681749BB697F
:100DA00013434B6006E0154B5A68BB69DB4313499C
:100DB00013404B603B685B6803F48033002B1FD00B
:100DC0000E4B1A680D49BB6913430B601FE000BF4F
:100DD000000032100000311000002210000021102D
:100DE000000012100000111000100240000001402D
:100DF00000080140000C01400010014000040140C7
:100E00000B4B1A68BB69DB43094913400B607B6AD3
:100E100001337B623B681A687B6A22FA03F3002B7A
:100E20007FF496AE00BF00BF2C37BD4680BC704734
:100E30000004014080B586B000AF78607B68002B6D
:100E400001D1012372E27B681B6803F00103002BD0
:100E500000F08780924B5B6803F00C03042B0CD0EE
:100E60008F4B5B6803F00C03082B12D18C4B5B6833
:100E700003F48033B3F5803F0BD1894B1B6803F437
:100E80000033002B6CD07B685B68002B68D101239A
:100E90004CE27B685B68B3F5803F06D1804B1B68F2
:100EA0007F4A43F4803313602EE07B685B68002B3D
:100EB0000CD17B4B1B687A4A23F480331360784B48
:100EC0001B68774A23F4802313601DE07B685B680E
:100ED000B3F5A02F0CD1724B1B68714A43F48023E9
:100EE00013606F4B1B686E4A43F4803313600BE052
:100EF0006B4B1B686A4A23F480331360684B1B6892
:100F0000674A23F4802313607B685B68002B13D04F
:100F1000FFF72AFD386108E0FFF726FD02463B692E
:100F2000D31A642B01D9032300E25D4B1B6803F441
:100F30000033002BF0D014E0FFF716FD386108E015
:100F4000FFF712FD02463B69D31A642B01D9032334
:100F5000ECE1534B1B6803F40033002BF0D100E0AD
:100F600000BF7B681B6803F00203002B63D04C4B6F
:100F70005B6803F00C03002B0BD0494B5B6803F05C
:100F80000C03082B1CD1464B5B6803F48033002B09
:100F900016D1434B1B6803F00203002B05D07B687E
:100FA0001B69012B01D00123C0E13D4B1B6823F0DD
:100FB000F8027B685B69DB00394913430B603AE058
:100FC0007B681B69002B20D0364B01221A60FFF78B
:100FD000CBFC386108E0FFF7C7FC02463B69D31A37
:100FE000022B01D90323A1E12D4B1B6803F002035F
:100FF000002BF0D02A4B1B6823F0F8027B685B695A
:10100000DB00274913430B6015E0264B00221A60D2
:10101000FFF7AAFC386108E0FFF7A6FC02463B692F
:10102000D31A022B01D9032380E11D4B1B6803F067
:101030000203002BF0D17B681B6803F00803002B30
:101040003AD07B689B69002B19D0174B01221A609C
:10105000FFF78AFC386108E0FFF786FC02463B692F
:10106000D31A022B01D9032360E10D4B5B6A03F015
:101070000203002BF0D0012000F0FEFA1CE00A4B26
:1010800000221A60FFF770FC38610FE0FFF76CFC7C
:1010900002463B69D31A022B08D9032346E100BF5D
:1010A000001002400000424280044242924B5B6AC0
:1010B00003F00203002BE9D17B681B6803F00403F3
:1010C000002B00F0A6800023FB758B4BDB6903F03F
:1010D0008053002B0DD1884BDB69874A43F0805346
:1010E000D361854BDB6903F08053BB60BB68012390
:1010F000FB75824B1B6803F48073002B18D17F4B68
:101100001B687E4A43F480731360FFF72DFC38613F
:1011100008E0FFF729FC02463B69D31A642B01D98A
:10112000032303E1754B1B6803F48073002BF0D09D
:101130007B68DB68012B06D16F4B1B6A6E4A43F05C
:10114000010313622DE07B68DB68002B0CD16A4B36
:101150001B6A694A23F001031362674B1B6A664AE4
:1011600023F0040313621CE07B68DB68052B0CD1C1
:10117000614B1B6A604A43F0040313625E4B1B6AB7
:101180005D4A43F0010313620BE05B4B1B6A5A4A52
:1011900023F001031362584B1B6A574A23F00403E0
:1011A00013627B68DB68002B15D0FFF7DDFB38612D
:1011B0000AE0FFF7D9FB02463B69D31A41F28832B5
:1011C000934201D90323B1E04B4B1B6A03F00203A6
:1011D000002BEED014E0FFF7C7FB38610AE0FFF701
:1011E000C3FB02463B69D31A41F28832934201D9CC
:1011F00003239BE0404B1B6A03F00203002BEED15C
:10120000FB7D012B05D13C4BDB693B4A23F080532E
:10121000D3617B68DB69002B00F08780364B5B680D
:1012200003F00C03082B61D07B68DB69022B46D1ED
:10123000334B00221A60FFF797FB386108E0FFF795
:1012400093FB02463B69D31A022B01D903236DE0BD
:10125000294B1B6803F00073002BF0D17B681B6ADD
:10126000B3F5803F08D1244B5B6823F400327B68E0
:101270009B68214913434B601F4B5B6823F4741236
:101280007B68196A7B685B6A0B431B4913434B609D
:101290001B4B01221A60FFF767FB386108E0FFF77C
:1012A00063FB02463B69D31A022B01D903233DE0BD
:1012B000114B1B6803F00073002BF0D035E0104B8E
:1012C00000221A60FFF750FB386108E0FFF74CFB83
:1012D00002463B69D31A022B01D9032326E0064BB1
:1012E0001B6803F00073002BF0D11EE07B68DB6904
:1012F000012B07D1012319E00010024000700040CB
:10130000600042420B4B5B68FB60FB6803F4803279
:101310007B681B6A9A4206D1FB6803F470127B68F3
:101320005B6A9A4201D0012300E000231846183777
:10133000BD4680BD0010024080B584B000AF78602B
:1013400039607B68002B01D10123D0E06A4B1B6818
:1013500003F007033A689A4210D9674B1B6823F0E1
:10136000070265493B6813430B60634B1B6803F03E
:1013700007033A689A4201D00123B8E07B681B68F2
:1013800003F00203002B20D07B681B6803F00403EA
:10139000002B05D0594B5B68584A43F4E063536017
:1013A0007B681B6803F00803002B05D0534B5B6878
:1013B000524A43F460535360504B5B6823F0F00291
:1013C0007B689B684D4913434B607B681B6803F047
:1013D0000103002B40D07B685B68012B07D1474B92
:1013E0001B6803F40033002B15D101237FE07B68D9
:1013F0005B68022B07D1414B1B6803F00073002B85
:1014000009D1012373E03D4B1B6803F00203002B5D
:1014100001D101236BE0394B5B6823F003027B6849
:101420005B68364913434B60FFF79EFAF8600AE0A9
:10143000FFF79AFA0246FB68D31A41F288329342C8
:1014400001D9032353E02D4B5B6803F00C027B684A
:101450005B689B009A42EBD1274B1B6803F00703A4
:101460003A689A4210D2244B1B6823F007022249A3
:101470003B6813430B60204B1B6803F007033A687B
:101480009A4201D0012332E07B681B6803F0040319
:10149000002B08D0194B5B6823F4E0627B68DB68A3
:1014A000164913434B607B681B6803F00803002B4D
:1014B00009D0124B5B6823F460527B681B69DB0028
:1014C0000E4913434B6000F021F802460B4B5B685A
:1014D0001B0903F00F030A49CB5C22FA03F3094A04
:1014E0001360094B1B681846FFF71EF900231846C6
:1014F0001037BD4680BD00BF0020024000100240F2
:1015000058490008000000200400002080B487B083
:1015100000AF0023FB600023BB6000237B6100233E
:101520007B6000233B611E4B5B68FB60FB6803F044
:101530000C03042B02D0082B03D027E0194B3B618E
:1015400027E0FB689B0C03F00F03174AD35C7B601A
:10155000FB6803F48033002B10D0114B5B685B0CED
:1015600003F00103114AD35CBB607B680D4A03FBA7
:1015700002F2BB68B2FBF3F37B6104E07B680C4AC8
:1015800002FB03F37B617B693B6102E0054B3B613E
:1015900000BF3B6918461C37BD4680BC704700BF82
:1015A0000010024000127A007049000880490008CB
:1015B00000093D0080B400AF024B1B681846BD46D1
:1015C00080BC70470000002080B500AFFFF7F2FF3D
:1015D0000246054B5B681B0A03F007030349CB5C1B
:1015E00022FA03F3184680BD001002406849000843
:1015F00080B500AFFFF7DEFF0246054B5B68DB0AF4
:1016000003F007030349CB5C22FA03F3184680BDBD
:10161000001002406849000880B483B000AF7860D1
:1016200039607B680F221A60114B5B6803F003027C
:101630007B685A600E4B5B6803F0F0027B689A602F
:101640000B4B5B6803F4E0627B68DA60084B5B6815
:10165000DB0803F4E0627B681A61064B1B6803F049
:1016600007023B681A6000BF0C37BD4680BC70475C
:10167000001002400020024080B485B000AF7860C6
:101680000A4B1B680A4AA2FB03235B0A7A6802FB27
:1016900003F3FB6000BFFB685A1EFA60002BF9D110
:1016A00000BF00BF1437BD4680BC7047000000205B
:1016B000D34D621080B582B000AF78607B68002B9C
:1016C00001D1012341E07B6893F83D30DBB2002B70
:1016D00006D17B68002283F83C20786800F039F856
:1016E0007B68022283F83D207B681A687B6804339C
:1016F0001946104600F096F97B68012283F84620CF
:101700007B68012283F83E207B68012283F83F201A
:101710007B68012283F840207B68012283F8412006
:101720007B68012283F842207B68012283F84320F2
:101730007B68012283F844207B68012283F84520DE
:101740007B68012283F83D20002318460837BD46F8
:1017500080BD80B483B000AF786000BF0C37BD4659
:1017600080BC704780B485B000AF78607B6893F828
:101770003D30DBB2012B01D0012335E07B68022232
:1017800083F83D207B681B68DA687B681B6842F041
:101790000102DA607B681B68164A934209D07B68B5
:1017A0001B68B3F1804F04D07B681B68124A9342D8
:1017B00011D17B681B689B6803F00703FB60FB6823
:1017C000062B10D07B681B681A687B681B6842F088
:1017D00001021A6007E07B681B681A687B681B6857
:1017E00042F001021A60002318461437BD4680BC3F
:1017F000704700BF002C01400004004080B584B059
:1018000000AF78607B681B68DB68FB607B681B68E7
:101810001B69BB60BB6803F00203002B20D0FB6890
:1018200003F00203002B1BD07B681B686FF00202E1
:101830001A617B6801221A777B681B689B6903F039
:101840000303002B03D0786800F0D1F805E0786836
:1018500000F0C4F8786800F0D3F87B6800221A77AB
:10186000BB6803F00403002B20D0FB6803F00403E3
:10187000002B1BD07B681B686FF004021A617B6829
:1018800002221A777B681B689B6903F44073002B64
:1018900003D0786800F0ABF805E0786800F09EF8B7
:1018A000786800F0ADF87B6800221A77BB6803F017
:1018B0000803002B20D0FB6803F00803002B1BD08B
:1018C0007B681B686FF008021A617B6804221A7734
:1018D0007B681B68DB6903F00303002B03D0786887
:1018E00000F085F805E0786800F078F8786800F096
:1018F00087F87B6800221A77BB6803F01003002B7F
:1019000020D0FB6803F01003002B1BD07B681B6802
:101910006FF010021A617B6808221A777B681B68D7
:10192000DB6903F44073002B03D0786800F05FF8A4
:1019300005E0786800F052F8786800F061F87B689C
:1019400000221A77BB6803F00103002B0CD0FB6860
:1019500003F00103002B07D07B681B686FF00102C6
:101960001A617868FEF744FEBB6803F08003002B21
:101970000CD0FB6803F08003002B07D07B681B684A
:101980006FF080021A61786800F0B9F8BB6803F064
:101990004003002B0CD0FB6803F04003002B07D062
:1019A0007B681B686FF040021A61786800F031F8BC
:1019B000BB6803F02003002B0CD0FB6803F020036E
:1019C000002B07D07B681B686FF020021A617868D3
:1019D00000F08CF800BF1037BD4680BD80B483B0E6
:1019E00000AF786000BF0C37BD4680BC704780B444
:1019F00083B000AF786000BF0C37BD4680BC704735
:101A000080B483B000AF786000BF0C37BD4680BCA7
:101A1000704780B483B000AF786000BF0C37BD461C
:101A200080BC704780B485B000AF786039607B6857
:101A30001B68FB607B682B4A934207D07B68B3F13D
:101A4000804F03D07B68284A934208D1FB6823F07B
:101A50007003FB603B685B68FA681343FB607B685C
:101A6000204A934207D07B68B3F1804F03D07B6854
:101A70001D4A934208D1FB6823F44073FB603B6826
:101A8000DB68FA681343FB60FB6823F080023B6865
:101A90005B691343FB607B68FA681A603B689A686D
:101AA0007B68DA623B681A687B689A627B680D4AD9
:101AB000934203D13B681A697B681A637B680122F1
:101AC0005A617B681B6903F00103002B05D07B681A
:101AD0001B6923F001027B681A6100BF1437BD4601
:101AE00080BC7047002C01400004004080B483B0EB
:101AF00000AF786000BF0C37BD4680BC704780B433
:101B000083B000AF786000BF0C37BD4680BC704723
:101B100080B582B000AF78607B68002B01D10123D3
:101B200042E07B6893F84130DBB2002B06D17B6842
:101B3000002283F840207868FEF7AAFD7B68242203
:101B400083F841207B681B68DA687B681B6822F495
:101B50000052DA60786800F071F97B681B681A69D6
:101B60007B681B6822F490421A617B681B685A6983
:101B70007B681B6822F02A025A617B681B68DA685E
:101B80007B681B6842F40052DA607B6800225A646A
:101B90007B68202283F841207B68202283F8422042
:101BA0007B6800225A63002318460837BD4680BD73
:101BB00080B58AB002AFF860B9603B601346FB8025
:101BC00000237B61FB6893F84130DBB2202B75D199
:101BD000BB68002B02D0FB88002B01D101236EE0F3
:101BE000FB6800225A64FB68212283F84120FEF73B
:101BF000BBFE7861FB68FA889A84FB68FA88DA840D
:101C0000FB689B68B3F5805F08D1FB681B69002BFC
:101C100004D10023FB61BB68BB6103E0BB68FB61CF
:101C20000023BB612EE03B6800937B69002280218A
:101C3000F86800F048F80346002B05D0FB68202226
:101C400083F8412003233AE0FB69002B0BD1BB69E9
:101C50001B881A46FB681B68C2F308025A60BB69FE
:101C60000233BB6107E0FB691A78FB681B685A60A6
:101C7000FB690133FB61FB68DB8C9BB2013B9AB2D1
:101C8000FB68DA84FB68DB8C9BB2002BCBD13B6812
:101C900000937B6900224021F86800F014F80346A5
:101CA000002B05D0FB68202283F84120032306E0A7
:101CB000FB68202283F84120002300E0022318461D
:101CC0002037BD4680BD80B586B000AFF860B960F2
:101CD0003B601346FB713BE03B6AB3F1FF3F37D0FB
:101CE000FEF742FE02463B68D31A3A6A9A4202D392
:101CF0003B6A002B01D103233AE0FB681B68DB68D9
:101D000003F00403002B23D0BB68802B20D0BB68DA
:101D1000402B1DD0FB681B681B6803F00803082BD1
:101D200016D100237B61FB681B681B687B61FB6825
:101D30001B685B687B617B69F86800F01DF8FB68D5
:101D400008225A64FB68002283F8402001230FE038
:101D5000FB681B681A68BB681340BA689A420CBFDC
:101D600001230023DBB21A46FB799A42B4D0002348
:101D700018461837BD4680BD80B495B000AF786076
:101D80007B681B680C337B637B6B53E8003F3B63D2
:101D90003B6B23F49073FB647B681B680C33FA6C19
:101DA0003A64FB63F96B3A6C41E80023BB63BB6B9D
:101DB000002BE5D17B681B6814333B623B6A53E818
:101DC000003FFB61FB6923F00103BB647B681B6878
:101DD0001433BA6CFA62BB62B96AFA6A41E800234A
:101DE0007B627B6A002BE5D17B681B6B012B19D1D1
:101DF0007B681B680C33FB60FB6853E8003FBB60EB
:101E0000BB6823F010037B647B681B680C337A6C1F
:101E1000BA617B617969BA6941E800233B613B693A
:101E2000002BE5D17B68202283F842207B680022CA
:101E30001A6300BF5437BD4680BC704780B584B07C
:101E400000AF78607B681B681B6923F440517B6896
:101E5000DA687B681B680A431A617B689A687B684A
:101E60001B691A437B685B691343BB607B681B6813
:101E7000DB6823F4B05323F00C037A681268B96866
:101E80000B43D3607B681B685B6923F440717B68FC
:101E90009A697B681B680A435A617B681B682C4AF5
:101EA000934203D1FFF7A4FBF86002E0FFF78CFB3D
:101EB000F860FA6813469B0013449A001A447B6842
:101EC0005B689B00B2FBF3F3224AA2FB03235B098E
:101ED0001901FA6813469B0013449A001A447B6860
:101EE0005B689B00B2FBF3F21A4BA3FB02035B0996
:101EF000642000FB03F3D31A1B013233154AA2FB03
:101F000003235B0903F0F0031944FA6813469B00AE
:101F100013449A001A447B685B689B00B2FBF3F29F
:101F20000C4BA3FB02035B09642000FB03F3D31AF1
:101F30001B013233074AA2FB03235B0903F00F02A4
:101F40007B681B680A449A6000BF1037BD4680BD9D
:101F5000003801401F85EB5180B485B000AF0346C7
:101F6000FB800023FB60B7F90630842B05D0B7F95E
:101F70000620FB6813440333FB60FB6818461437E4
:101F8000BD4680BC704780B500AF00F099FE0023CD
:101F9000184680BDF0B589B004AF786039607B68C1
:101FA0005B69002B20D07B689B69002B1CD07B6871
:101FB0005C687B681D687B681E697B68B3F90830C4
:101FC0001846FFF7C9FF01467B685B697A6892692A
:101FD0000292019300913B6832462946204600F068
:101FE000A1FC0346FB601CE07B685C687B681D68A5
:101FF0007B681B699EB27B68B3F908301846FFF70F
:10200000ABFF024607F10C03019300923B68324696
:102010002946204600F0E6FC0346012B01D00023B0
:1020200000E0FB6818461437BD46F0BD80B584B0AB
:1020300000AF78607B68FB60FB68002B01D0FB6819
:1020400000E00123184600F005FE00231846103773
:10205000BD4680BD80B483B000AF78607B6803F17B
:1020600008027B685A607B684FF0FF329A607B6899
:1020700003F108027B68DA607B6803F108027B6881
:102080001A617B6800221A6000BF0C37BD4680BC15
:10209000704780B483B000AF78607B6800221A611B
:1020A00000BF0C37BD4680BC704780B485B000AF20
:1020B000786039607B685B68FB603B68FA685A60EF
:1020C000FB689A683B689A60FB689B683A685A604C
:1020D000FB683A689A603B687A681A617B681B689B
:1020E0005A1C7B681A6000BF1437BD4680BC70471D
:1020F00080B485B000AF786039603B681B68BB6016
:10210000BB68B3F1FF3F03D17B681B69FB600CE048
:102110007B680833FB6002E0FB685B68FB60FB6880
:102120005B681B68BA689A42F6D2FB685A683B68DB
:102130005A603B685B683A689A603B68FA689A60E4
:10214000FB683A685A603B687A681A617B681B686A
:102150005A1C7B681A6000BF1437BD4680BC7047AC
:1021600080B485B000AF78607B681B69FB607B68DA
:102170005B687A6892689A607B689B687A68526844
:102180005A60FB685B687A689A4203D17B689A68F8
:10219000FB685A607B6800221A61FB681B685A1E44
:1021A000FB681A60FB681B6818461437BD4680BC84
:1021B0007047000080B584B000AF786039607B68FC
:1021C000FB60FB68002B0BD14FF0500383F31188A9
:1021D000BFF36F8FBFF34F8FBB6000BF00BFFDE742
:1021E00001F074FBFB681A68FB68DB6BF968096C2B
:1021F00001FB03F31A44FB689A60FB6800229A63B0
:10220000FB681A68FB685A60FB681A68FB68DB6B3E
:10221000013BF968096C01FB03F31A44FB68DA60BF
:10222000FB68FF2283F84420FB68FF2283F84520E7
:102230003B68002B14D1FB681B69002B1AD0FB688C
:102240001033184600F086FF0346002B12D00D4BCA
:102250004FF080521A60BFF34F8FBFF36F8F09E0CA
:10226000FB6810331846FFF7F5FEFB682433184669
:10227000FFF7F0FE01F05AFB012318461037BD4668
:1022800080BD00BF04ED00E080B58AB002AFF86009
:10229000B9601346FB71FB68002B0BD14FF0500364
:1022A00083F31188BFF36F8FBFF34F8F3B6100BF84
:1022B00000BFFDE7FB68BA6802FB03F3FB61FB6943
:1022C0004833184601F0C4FBB861BB69002B11D03C
:1022D000BB697B617B6948337B61BB69002283F802
:1022E0004620FA79BB69009313467A69B968F868A1
:1022F00000F005F8BB6918462037BD4680BD80B5A3
:1023000084B000AFF860B9607A60FB70BB68002BE6
:1023100003D1BB69BA691A6002E0BB697A681A60C6
:10232000BB69FA68DA63BB69BA681A640121B869E3
:10233000FFF740FF00BF1037BD4680BD80B58EB0AF
:1023400000AFF860B9607A603B6000237B63FB6894
:102350003B633B6B002B0BD14FF0500383F3118891
:10236000BFF36F8FBFF34F8FBB6200BF00BFFDE7AE
:10237000BB68002B03D13B6B1B6C002B01D10123ED
:1023800000E00023002B0BD14FF0500383F31188A2
:10239000BFF36F8FBFF34F8F7B6200BF00BFFDE7BE
:1023A0003B68022B03D13B6BDB6B012B01D101237B
:1023B00000E00023002B0BD14FF0500383F3118872
:1023C000BFF36F8FBFF34F8F3B6200BF00BFFDE7CE
:1023D00001F080F80346002B02D17B68002B01D16D
:1023E000012300E00023002B0BD14FF0500383F3B7
:1023F0001188BFF36F8FBFF34F8FFB6100BF00BF2A
:10240000FDE701F063FA3B6B9A6B3B6BDB6B9A4227
:1024100002D33B68022B29D13A68B968386B00F0C7
:1024200071F9F8623B6B5B6A002B10D03B6B243375
:10243000184600F08FFE0346002B13D03F4B4FF0A1
:1024400080521A60BFF34F8FBFF36F8F0AE0FB6AB1
:10245000002B07D0394B4FF080521A60BFF34F8FDB
:10246000BFF36F8F01F062FA012363E07B68002BFA
:1024700003D101F05BFA00235CE07B6B002B06D1FB
:1024800007F11403184600F0C9FE01237B6301F035
:102490004DFA00F077FC01F019FA3B6B93F84430E9
:1024A0005BB2B3F1FF3F03D13B6B002283F84420C2
:1024B0003B6B93F845305BB2B3F1FF3F03D13B6B0D
:1024C000002283F8452001F031FA3A1D07F1140388
:1024D0001146184600F0B8FE0346002B24D1386B95
:1024E00000F008FA0346002B18D03B6B10337A68D3
:1024F0001146184600F008FE386B00F093F900F022
:102500004FFC0346002B7FF47CAF0C4B4FF0805206
:102510001A60BFF34F8FBFF36F8F72E7386B00F015
:1025200081F900F03DFC6CE7386B00F07BF900F0BE
:1025300037FC002318463837BD4680BD04ED00E067
:1025400080B58CB000AFF860B9607A600023FB62A0
:10255000FB68BB62BB6A002B0BD14FF0500383F3C7
:102560001188BFF36F8FBFF34F8F3B6200BF00BF77
:10257000FDE7BB68002B03D1BB6A1B6C002B01D1AC
:10258000012300E00023002B0BD14FF0500383F315
:102590001188BFF36F8FBFF34F8FFB6100BF00BF88
:1025A000FDE700F097FF0346002B02D17B68002B6C
:1025B00001D1012300E00023002B0BD14FF0500389
:1025C00083F31188BFF36F8FBFF34F8FBB6100BFE1
:1025D00000BFFDE701F07AF9BB6A9B6B7B627B6A07
:1025E000002B1FD0B968B86A00F0F6F87B6A5A1E53
:1025F000BB6A9A63BB6A1B69002B0FD0BB6A10339E
:10260000184600F0A7FD0346002B07D03C4B4FF0C7
:1026100080521A60BFF34F8FBFF36F8F01F086F9BE
:10262000012369E07B68002B03D101F07FF90023CF
:1026300062E0FB6A002B06D107F11003184600F098
:10264000EDFD0123FB6201F071F900F09BFB01F04D
:102650003DF9BB6A93F844305BB2B3F1FF3F03D15D
:10266000BB6A002283F84420BB6A93F845305BB212
:10267000B3F1FF3F03D1BB6A002283F8452001F08C
:1026800055F93A1D07F110031146184600F0DCFD1C
:102690000346002B23D1B86A00F016F90346002B3D
:1026A00017D0BB6A24337A681146184600F02CFD17
:1026B000B86A00F0B7F800F073FB0346002B89D12D
:1026C0000F4B4FF080521A60BFF34F8FBFF36F8FE5
:1026D00080E7B86A00F0A6F800F062FB7AE7B86A13
:1026E00000F0A0F800F05CFBB86A00F0EDF80346DB
:1026F000002B3FF46FAF002318463037BD4680BD36
:1027000004ED00E080B586B000AFF860B9607A6093
:1027100000237B61FB689B6B3B61FB681B6C002BA0
:102720000DD1FB681B68002B4DD1FB689B681846D8
:1027300000F0EEFE7861FB6800229A6043E07B685F
:10274000002B19D1FB685868FB681B6C1A46B968E6
:1027500001F0C0FBFB685A68FB681B6C1A44FB68FD
:102760005A60FB685A68FB689B689A422BD3FB68E7
:102770001A68FB685A6026E0FB68D868FB681B6C27
:102780001A46B96801F0A6FBFB68DA68FB681B6CA7
:102790005B421A44FB68DA60FB68DA68FB681B6816
:1027A0009A4207D2FB689A68FB681B6C5B421A442A
:1027B000FB68DA607B68022B05D13B69002B02D0F5
:1027C0003B69013B3B613B695A1CFB689A637B692F
:1027D00018461837BD4680BD80B582B000AF78601E
:1027E00039607B681B6C002B18D07B68DA687B68CB
:1027F0001B6C1A447B68DA607B68DA687B689B68CC
:102800009A4203D37B681A687B68DA607B68D96870
:102810007B681B6C1A46386801F05CFB00BF083708
:10282000BD4680BD80B584B000AF786001F04EF841
:102830007B6893F84530FB7311E07B685B6A002B83
:1028400012D07B682433184600F084FC0346002B2A
:1028500001D000F05DFDFB7B013BDBB2FB7397F920
:102860000F30002BE9DC00E000BF7B68FF2283F81B
:10287000452001F05BF801F029F87B6893F84430BB
:10288000BB7311E07B681B69002B12D07B6810338F
:10289000184600F05FFC0346002B01D000F038FD25
:1028A000BB7B013BDBB2BB7397F90E30002BE9DC3D
:1028B00000E000BF7B68FF2283F8442001F036F877
:1028C00000BF1037BD4680BD80B584B000AF7860D2
:1028D00000F0FCFF7B689B6B002B02D10123FB60A7
:1028E00001E00023FB6001F021F8FB681846103777
:1028F000BD4680BD80B584B000AF786000F0E6FFD3
:102900007B689A6B7B68DB6B9A4202D10123FB6088
:1029100001E00023FB6001F009F8FB68184610375E
:10292000BD4680BD80B58EB004AFF860B9607A60F6
:102930003B607B6B002B0BD14FF0500383F311886E
:10294000BFF36F8FBFF34F8F3B6200BF00BFFDE748
:10295000BB6B002B0BD14FF0500383F31188BFF3F7
:102960006F8FBFF34F8FFB6100BF00BFFDE75423A4
:102970003B613B69542B0BD04FF0500383F311881C
:10298000BFF36F8FBFF34F8FBB6100BF00BFFDE789
:102990003B69BB6B002B1ED07B6B002B1BD0BB6B32
:1029A0007B627B6A7A6B1A637B6A022283F851200E
:1029B000002303937B6A029307F1140301933B6B9B
:1029C00000933B687A68B968F86800F050F8786A54
:1029D00000F0D6F801E000237B617B6918462837B8
:1029E000BD4680BD80B58CB004AFF860B9603B6077
:1029F0001346FB80FB889B00184601F029F878619C
:102A00007B69002B0ED0542001F022F8F861FB699D
:102A1000002B03D0FB697A691A6305E0786901F03D
:102A2000E5F801E00023FB61FB69002B17D0FB698F
:102A3000002283F85120FA8800230393FB69029354
:102A4000FB6A0193BB6A00933B68B968F86800F0C1
:102A50000EF8F86900F094F80123BB6102E04FF032
:102A6000FF33BB61BB6918462037BD4680BD80B5CA
:102A700088B000AFF860B9607A603B603B6B1A6B5E
:102A80007B6803F18043013B9B001344BB61BB693E
:102A900023F00703BB61BB6903F00703002B0BD0D6
:102AA0004FF0500383F31188BFF36F8FBFF34F8F45
:102AB0007B6100BF00BFFDE7BB68002B1FD0002378
:102AC000FB6112E0BA68FB69134419783A6BFB6941
:102AD000134434330A461A70BA68FB6913441B78EE
:102AE000002B06D0FB690133FB61FB690F2BE9D991
:102AF00000E000BF3B6B002283F8432003E03B6B08
:102B0000002283F83420BB6A062B01D90623BB625E
:102B10003B6BBA6ADA623B6BBA6A5A643B6B00225F
:102B20009A643B6B04331846FFF7B3FA3B6B1833D8
:102B30001846FFF7AEFA3B6B3A6B1A61BB6AC3F1FA
:102B400007023B6B9A613B6B3A6B5A623B6B00220C
:102B5000DA643B6B002283F850203A68F968B86960
:102B600000F0C4FD02463B6B1A60FB6A002B02D0EA
:102B7000FB6A3A6B1A6000BF2037BD4680BD00007B
:102B800080B582B000AF786000F0A0FE2A4B1B68D1
:102B90000133294A1360294B1B68002B09D1274AAE
:102BA0007B681360244B1B68012B10D100F0D4FB11
:102BB0000DE0234B1B68002B09D1204B1B68DA6A00
:102BC0007B68DB6A9A4202D81C4A7B6813601D4B03
:102BD0001B6801331B4A13607B68DB6A01229A4041
:102BE000194B1B681343184A13607B68DA6A134653
:102BF0009B0013449B00154A1A447B680433194612
:102C00001046FFF752FA00F091FE0D4B1B68002BA7
:102C10000ED00A4B1B68DA6A7B68DB6A9A4207D2DD
:102C20000B4B4FF080521A60BFF34F8FBFF36F8F83
:102C300000BF0837BD4680BD840400208403002007
:102C400090040020A00400208C04002088030020B1
:102C500004ED00E080B584B000AF78600023FB6035
:102C60007B68002B18D0144B1B68002B0BD04FF047
:102C7000500383F31188BFF36F8FBFF34F8FBB6097
:102C800000BF00BFFDE700F07DF80021786800F08C
:102C9000C7FC00F085F8F860FB68002B07D1074BF4
:102CA0004FF080521A60BFF34F8FBFF36F8F00BF9A
:102CB0001037BD4680BD00BFAC04002004ED00E02D
:102CC00080B58AB004AF0023BB6000237B603A4626
:102CD000391D07F108031846FDF742FA39687B6889
:102CE000BA68029201930023009300230A461F4909
:102CF0001F48FFF717FE03461E4A13601D4B1B6853
:102D0000002B02D001237B6101E000237B617B6902
:102D1000012B16D14FF0500383F31188BFF36F8F4F
:102D2000BFF34F8F3B6100BF134B4FF0FF321A6070
:102D3000124B01221A60124B00221A6000F054FD5F
:102D40000FE07B69B3F1FF3F0BD14FF0500383F3EA
:102D50001188BFF36F8FBFF34F8FFB6000BF00BFC1
:102D6000FDE700BF1837BD4680BD00BF50490008D1
:102D700029330008A8040020A404002090040020A7
:102D80008804002080B400AF044B1B680133034A61
:102D9000136000BFBD4680BC704700BFAC0400207C
:102DA00080B584B000AF0023FB600023BB60424BC2
:102DB0001B68002B0BD14FF0500383F31188BFF336
:102DC0006F8FBFF34F8F3B6000BF00BFFDE700F088
:102DD0007DFD394B1B68013B374A1360364B1B683E
:102DE000002B61D1354B1B68002B5DD02EE0344B9E
:102DF000DB68DB68FB60FB6818331846FFF7B0F947
:102E0000FB6804331846FFF7ABF9FB68DB6A012265
:102E10009A402C4B1B6813432A4A1360FB68DA6AFA
:102E200013469B0013449B00274A1A44FB68043353
:102E300019461046FFF739F9FB68DA6A234B1B681D
:102E4000DB6A9A4202D3224B01221A601C4B1B6898
:102E5000002BCCD1FB68002B01D000F01BFB1D4BDD
:102E60001B687B607B68002B10D000F037F80346AE
:102E7000002B02D0164B01221A607B68013B7B605D
:102E80007B68002BF1D1134B00221A60104B1B689A
:102E9000002B09D00123BB600F4B4FF080521A600A
:102EA000BFF34F8FBFF36F8F00F040FDBB68184634
:102EB0001037BD4680BD00BFAC0400208404002054
:102EC000440400208C040020880300208403002098
:102ED000980400209404002004ED00E080B586B042
:102EE00000AF00237B614F4B1B68002B40F08F80AD
:102EF0004D4B1B6801333B614B4A3B6913603B6997
:102F0000002B21D1494B1B681B68002B0BD04FF0C5
:102F1000500383F31188BFF36F8FBFF34F8F3B6074
:102F200000BF00BFFDE7414B1B68FB60404B1B68C7
:102F30003E4A13603E4AFB6813603E4B1B680133F8
:102F40003C4A136000F0A6FA3B4B1B683A699A4270
:102F500048D3364B1B681B68002B04D1364B4FF00F
:102F6000FF321A603EE0314B1B68DB68DB68BB60F8
:102F7000BB685B687B603A697B689A4203D22E4AE1
:102F80007B6813602EE0BB6804331846FFF7E8F84F
:102F9000BB689B6A002B04D0BB6818331846FFF748
:102FA000DFF8BB68DB6A01229A40244B1B6813439D
:102FB000224A1360BB68DA6A13469B0013449B00E5
:102FC0001F4A1A44BB68043319461046FFF76DF8D0
:102FD000BB68DA6A1B4B1B68DB6A9A42B9D30123D0
:102FE0007B61B6E7174B1B68DA6A154913469B00ED
:102FF00013449B000B441B68012B01D901237B6107
:10300000114B1B68002B07D001237B6104E00F4BA1
:103010001B6801330D4A13607B6918461837BD469B
:1030200080BD00BFAC040020880400203C040020C8
:10303000400400209C040020A40400208C040020F4
:1030400088030020840300209804002094040020BA
:1030500080B487B000AF274B1B68002B03D0264BF2
:1030600001221A6040E0244B00221A60234B1B68A7
:10307000FB60FB68B3FA83F3FB72FB7AC3F11F03B7
:103080007B611F497A6913469B0013449B000B44E4
:103090001B68002B0BD14FF0500383F31188BFF353
:1030A0006F8FBFF34F8F7B6000BF00BFFDE77A6972
:1030B00013469B0013449B00114A13443B613B6938
:1030C0005B685A683B695A603B695A683B690833D8
:1030D0009A4204D13B695B685A683B695A603B6914
:1030E0005B68DB68074A136000BF1C37BD4680BCC5
:1030F000704700BFAC040020980400208C0400201E
:10310000880300208403002080B584B000AF78607D
:1031100039607B68002B0BD14FF0500383F311888B
:10312000BFF36F8FBFF34F8FFB6000BF00BFFDE7A2
:10313000074B1B68183319467868FEF7D9FF012141
:10314000386800F06DFA00BF1037BD4680BD00BF83
:103150008403002080B586B000AF78607B68DB68B0
:10316000DB683B613B69002B0BD14FF0500383F3CD
:103170001188BFF36F8FBFF34F8FFB6000BF00BF9D
:10318000FDE73B6918331846FEF7EAFF1D4B1B6845
:10319000002B1CD13B6904331846FEF7E1FF3B6965
:1031A000DB6A01229A40184B1B681343164A1360CE
:1031B0003B69DA6A13469B0013449B00134A1A4486
:1031C0003B69043319461046FEF76FFF05E03B6983
:1031D000183319460E48FEF768FF3B69DA6A0D4B53
:1031E0001B68DB6A9A4205D901237B610A4B0122E5
:1031F0001A6001E000237B617B6918461837BD46E1
:1032000080BD00BFAC0400208C0400208803002097
:1032100044040020840300209804002080B483B07C
:1032200000AF7860064B1A687B681A60054B1A6815
:103230007B685A6000BF0C37BD4680BC704700BF3A
:103240009C0400208804002080B588B000AF78601E
:1032500039607B68002B0BD14FF0500383F311884A
:10326000BFF36F8FBFF34F8F3B6100BF00BFFDE720
:103270003B68002B0BD14FF0500383F31188BFF351
:103280006F8FBFF34F8FFB6000BF00BFFDE700F003
:103290001DFB1D4B1B68BB617B685B68BA69D31A59
:1032A0007B613B681B68B3F1FF3F02D10023FB61E8
:1032B00023E07B681A68154B1B689A4207D07B682D
:1032C0005B68BA699A4202D30123FB6115E03B684F
:1032D0001B687A699A420BD23B681A687B69D21ADA
:1032E0003B681A607868FFF799FF0023FB6104E0F0
:1032F0003B6800221A600123FB6100F017FBFB69A9
:1033000018462037BD4680BD880400209C0400205C
:1033100080B400AF034B01221A6000BFBD4680BCE1
:10332000704700BF9804002080B582B000AF78607D
:1033300000F052F8064B1B68012BF9D9054B4FF0F2
:1033400080521A60BFF34F8FBFF36F8FF0E700BF5B
:103350008803002004ED00E080B582B000AF0023B8
:103360007B600CE07A6813469B0013449B00124A72
:1033700013441846FEF76EFE7B6801337B607B6862
:10338000062BEFD90D48FEF765FE0D48FEF762FEED
:103390000C48FEF75FFE0C48FEF75CFE0B48FEF79C
:1033A00059FE0B4B054A1A600A4B054A1A6000BFCA
:1033B0000837BD4680BD00BF8803002014040020EC
:1033C0002804002044040020580400207004002039
:1033D0003C0400204004002080B582B000AF19E01A
:1033E00000F074FA104BDB68DB687B607B680433A9
:1033F0001846FEF7B5FE0D4B1B68013B0B4A1360E8
:103400000B4B1B68013B0A4A136000F08FFA786887
:1034100000F010F8064B1B68002BE1D100BF00BF85
:103420000837BD4680BD00BF58040020840400203A
:103430006C04002080B584B000AF78607B6893F89E
:103440005130002B08D17B681B6B184600F0CEFB77
:10345000786800F0CBFB19E07B6893F85130012BC2
:1034600003D1786800F0C2FB10E07B6893F851301C
:10347000022B0BD04FF0500383F31188BFF36F8FF3
:10348000BFF34F8FFB6000BF00BFFDE700BF1037E9
:10349000BD4680BD80B483B000AF0C4B1B681B6879
:1034A000002B04D10A4B4FF0FF321A6008E0074BA3
:1034B0001B68DB68DB687B607B685B68044A1360C1
:1034C00000BF0C37BD4680BC704700BF3C040020E5
:1034D000A404002080B483B000AF0B4B1B68002B0A
:1034E00002D101237B6008E0084B1B68002B02D14E
:1034F00002237B6001E000237B607B6818460C3769
:10350000BD4680BC704700BF90040020AC04002082
:1035100080B586B000AF78607B683B6100237B613B
:103520007B68002B70D03B4B1B683A699A420BD0EA
:103530004FF0500383F31188BFF36F8FBFF34F8FAA
:10354000FB6000BF00BFFDE73B699B6C002B0BD10C
:103550004FF0500383F31188BFF36F8FBFF34F8F8A
:10356000BB6000BF00BFFDE73B699B6C5A1E3B6917
:103570009A643B69DA6A3B695B6C9A4244D03B6966
:103580009B6C002B40D13B6904331846FEF7E8FDE5
:103590000346002B15D13B69DA6A1F4913469B008D
:1035A00013449B000B441B68002B0AD13B69DB6A68
:1035B000012202FA03F3DA43184B1B681340174A3F
:1035C00013603B695A6C3B69DA623B69DB6AC3F1A1
:1035D00007023B699A613B69DB6A01229A400F4B03
:1035E0001B6813430D4A13603B69DA6A13469B005C
:1035F00013449B00084A1A443B6904331946104699
:10360000FEF753FD01237B617B6918461837BD46E1
:1036100080BD00BF84030020880300208C040020AC
:1036200080B584B000AF78603960294B1B68FB60BF
:10363000284B1B6804331846FEF792FD0346002B07
:103640000BD1244B1B68DB6A012202FA03F3DA4335
:10365000214B1B681340204A13607B68B3F1FF3F86
:103660000AD13B68002B07D01A4B1B68043319465C
:103670001A48FEF71AFD26E0FA687B681344BB601F
:10368000144B1B68BA685A60BA68FB689A4209D240
:10369000134B1A680F4B1B68043319461046FEF78C
:1036A00027FD10E00F4B1A680A4B1B6804331946BC
:1036B0001046FEF71DFD0C4B1B68BA689A4202D2F9
:1036C000094ABB68136000BF1037BD4680BD00BF0C
:1036D00088040020840300208C0400207004002053
:1036E000400400203C040020A404002080B485B0E5
:1036F00000AFF860B9607A60FB68043BFB60FB6870
:103700004FF080721A60FB68043BFB60BB6823F0DB
:103710000102FB681A60FB68043BFB60084AFB6817
:103720001A60FB68143BFB607A68FB681A60FB68F0
:10373000203BFB60FB6818461437BD4680BC7047D1
:103740004537000880B485B000AF00237B60124B82
:103750001B68B3F1FF3F0BD04FF0500383F3118888
:10376000BFF36F8FBFF34F8FFB6000BF00BFFDE75C
:103770004FF0500383F31188BFF36F8FBFF34F8F68
:10378000BB6000BF00BF7B68002BFCD000BF00BF48
:103790001437BD4680BC70470C00002000000000BC
:1037A000074B19680868B0E8F00F80F30988BFF389
:1037B0006F8F4FF0000080F311884EF00D0E7047B0
:1037C0008403002000BF00BF06480068006880F343
:1037D000088862B661B6BFF34F8FBFF36F8F00DF0B
:1037E00000BF00BF08ED00E080B584B000AF324BF1
:1037F000FB60FB681B78DBB27B60FB68FF221A7002
:10380000FB681B78DBB2FB70FB78DBB203F0500384
:10381000DAB22A4B1A702A4B07221A6009E0284BA9
:103820001B68013B264A1360FB78DBB25B00DBB20E
:10383000FB70FB78DBB203F08003802BEFD0204BD2
:103840001B68C3F10703042B0BD04FF0500383F325
:103850001188BFF36F8FBFF34F8FBB6000BF00BFF6
:10386000FDE7174B1B681B02154A1360144B1B68BE
:1038700003F4E063124A13607B68DAB2FB681A70E3
:10388000104B1B680F4A43F4700313600D4B1B6809
:103890000C4A43F07043136000F0B8F80A4B002262
:1038A0001A60FFF791FFFFF7D3FBFFF74BFF0023F1
:1038B00018461037BD4680BD00E400E0B00400208B
:1038C000B404002020ED00E00C00002080B483B0A0
:1038D00000AF4FF0500383F31188BFF36F8FBFF336
:1038E0004F8F7B6000BF0F4B1B6801330D4A136085
:1038F0000C4B1B68012B10D10B4B1B68DBB2002B50
:103900000BD04FF0500383F31188BFF36F8FBFF3D9
:103910004F8F3B6000BF00BFFDE700BF0C37BD46C7
:1039200080BC70470C00002004ED00E080B483B040
:1039300000AF124B1B68002B0BD14FF0500383F3E9
:103940001188BFF36F8FBFF34F8F7B6000BF00BF45
:10395000FDE70A4B1B68013B084A1360074B1B68D5
:10396000002B05D100233B603B6883F3118800BF27
:1039700000BF0C37BD4680BC704700BF0C00002064
:10398000EFF30980BFF36F8F0D4B1A6820E9F00F3A
:1039900010602DE908404FF0500080F31188FFF7C8
:1039A00057FB4FF0000080F31188BDE8084019680C
:1039B0000868B0E8F00F80F30988BFF36F8F704795
:1039C0008403002000BF00BF80B582B000AF4FF07D
:1039D000500383F31188BFF36F8FBFF34F8F7B606A
:1039E00000BFFFF77BFA0346002B03D0064B4FF0D6
:1039F00080521A6000233B603B6883F3118800BF4C
:103A000000BF0837BD4680BD04ED00E080B400AFC4
:103A10000A4B00221A600A4B00221A60094B1B68ED
:103A2000094AA2FB03239B09084A013B1360034B8D
:103A300007221A6000BFBD4680BC704710E000E05E
:103A400018E000E000000020D34D621014E000E018
:103A500080B58AB000AF78600023FB61FFF792F970
:103A60005C4B1B68002B01D100F024F95A4B1A68FB
:103A70007B681340002B40F095807B68002B1ED0A4
:103A800008227B6813447B607B6803F00703002BEC
:103A900015D07B6823F0070308337B607B6803F055
:103AA0000703002B0BD04FF0500383F31188BFF3B3
:103AB0006F8FBFF34F8F7B6100BF00BFFDE77B6857
:103AC000002B6FD0454B1B687A689A426AD8444BEA
:103AD0003B62434B1B687B6204E07B6A3B627B6A10
:103AE0001B687B627B6A5B687A689A4203D97B6A4F
:103AF0001B68002BF1D1374B1B687A6A9A4251D070
:103B00003B6A1B6808221344FB617B6A1A683B6AA4
:103B10001A607B6A5A687B68D21A08235B009A4253
:103B200020D97A6A7B681344BB61BB6903F0070341
:103B3000002B0BD04FF0500383F31188BFF36F8F2E
:103B4000BFF34F8F3B6100BF00BFFDE77B6A5A6840
:103B50007B68D21ABB695A607B6A7A685A60B86916
:103B600000F00AF91D4B1A687B6A5B68D31A1B4A7E
:103B700013601A4B1A681B4B1B689A4203D2174BEF
:103B80001B68184A13607B6A5A68134B1B681A43F8
:103B90007B6A5A607B6A00221A60134B1B680133F0
:103BA000114A1360FFF7FCF8FB6903F00703002BD1
:103BB0000BD04FF0500383F31188BFF36F8FBFF327
:103BC0004F8FFB6000BF00BFFDE7FB691846283739
:103BD000BD4680BDC0100020D4100020C4100020BD
:103BE000B8100020C8100020CC10002080B586B08E
:103BF00000AF78607B687B617B68002B4FD0082327
:103C00005B427A6913447B617B693B613B695A681B
:103C1000254B1B681340002B0BD14FF0500383F34F
:103C20001188BFF36F8FBFF34F8FFB6000BF00BFE2
:103C3000FDE73B691B68002B0BD04FF0500383F36B
:103C40001188BFF36F8FBFF34F8FBB6000BF00BF02
:103C5000FDE73B695A68144B1B681340002B1ED0CC
:103C60003B691B68002B1AD13B695A680E4B1B68D5
:103C7000DB431A403B695A60FFF784F83B695A6896
:103C80000A4B1B681344094A1360386900F074F842
:103C9000074B1B680133064A1360FFF781F800BF2A
:103CA0001837BD4680BD00BFD4100020C4100020CE
:103CB000D010002080B485B000AF4FF44063BB60EB
:103CC000274BFB60FB6803F00703002B0CD0FB685D
:103CD0000733FB60FB6823F00703FB60BA68FB68EF
:103CE000D31A1F4A1344BB60FB687B601D4A7B6884
:103CF00013601C4B00225A607B68BA681344FB6057
:103D00000822FB689B1AFB60FB6823F00703FB603B
:103D1000FB68154A1360144B1B6800225A60124B53
:103D20001B6800221A607B683B603B68FA68D21A05
:103D30003B685A600C4B1A683B681A603B685B68CA
:103D40000A4A13603B685B68094A1360094B4FF0ED
:103D500000421A6000BF1437BD4680BC704700BFE8
:103D6000B8040020B8100020C0100020C8100020A7
:103D7000C4100020D410002080B485B000AF78605B
:103D8000274BFB6002E0FB681B68FB60FB681B685D
:103D90007A689A42F7D8FB68BB60FB685B68BA68D0
:103DA00013447A689A4208D1FB685A687B685B685A
:103DB0001A44FB685A60FB687B607B68BB607B6869
:103DC0005B68BA681A44FB681B689A4218D1FB68A2
:103DD0001A68144B1B689A420DD07B685A68FB68BE
:103DE0001B685B681A447B685A60FB681B681A682A
:103DF0007B681A6008E00B4B1A687B681A6003E066
:103E0000FB681A687B681A60FA687B689A4202D07D
:103E1000FB687A681A6000BF1437BD4680BC7047E3
:103E2000B8100020C01000200EB46FF0004110B593
:103E300000249DB01FAB02900690079104910948A1
:103E4000094953F8042B0591006802A901931B94BA
:103E500000F0A0F9029B1C701DB0BDE8104003B03B
:103E6000704700BF100000200802FFFF0346024415
:103E7000934200D1704703F8011BF9E7014B186822
:103E8000704700BF1000002070B500260C4D0D4C8F
:103E9000641BA410A64209D100F076FC00260A4D4E
:103EA0000A4C641BA410A64205D170BD55F8043B12
:103EB00098470136EEE755F8043B98470136F2E79C
:103EC000C0490008C0490008C0490008C4490008AA
:103ED000704770470A44914200F1FF3300D17047A8
:103EE00010B511F8014B914203F8014FF9D110BD03
:103EF00038B50546002940D051F8043C0C1F002B72
:103F0000B8BFE41800F0DEF81C4A136833B96360E8
:103F100014602846BDE8384000F0DAB8A34208D95A
:103F2000206821188B4201BF19685B68091821605D
:103F3000EDE71A465B680BB1A342FAD91168501835
:103F4000A0420BD120680144501883421160E0D197
:103F500018685B68084410605360DAE702D90C23E4
:103F60002B60D6E7206821188B4201BF19685B6877
:103F70000918216063605460CBE738BD1C12002033
:103F800070B50F4E0C463168054611B900F0A8FB1C
:103F900030602146284600F0A3FB431C03D14FF0BC
:103FA000FF34204670BDC41C24F00304A042F8D0A6
:103FB000211A284600F094FB0130F2D1EFE700BF50
:103FC000181200202DE9F843CD1C25F00305083513
:103FD0000C2D38BF0C25002D064601DBA94204D963
:103FE0000C2333600020BDE8F883DFF8D48000F0B4
:103FF00069F8D8F800301C4644BB29463046FFF724
:10400000BFFF431C044658D1D8F800402746002F74
:1040100043D1002C4BD023683946304604EB0309CA
:1040200000F05EFB814542D1216830466D1A294679
:10403000FFF7A6FF01303AD023682B442360D8F85D
:1040400000305A6862BBC8F800700FE02268521B4B
:1040500020D40B2A17D96119A342256018BF5960D3
:10406000636808BFC8F8001062514B60304600F02A
:104070002FF804F10B00231D20F00700C21A1CBF0B
:104080001B1AA350AFE76268A3420CBFC8F8002018
:104090005A60EBE723466468AEE73C467F68B6E7C4
:1040A0001A465B68A342FBD100235360DEE70C2372
:1040B0003046336000F00CF894E70560D6E700BFA7
:1040C0001C1200200148FFF703BF00BF141200209C
:1040D0000148FFF7FEBE00BF141200202DE9F04793
:1040E0001F468E688246BE420C4690460B682DD80D
:1040F000B1F90C2012F4906F26D06569096905EBBF
:104100004505A3EB010905EBD5757B1C4B446D10F0
:104110009D4238BF1D46530527D52946FFF752FF5C
:10412000064660B34A462169FFF7D4FEA38923F40B
:10413000906343F08003A38126614E4426603E468F
:104140006561A5EB0905A560BE4200D93E46324631
:104150004146206800F0AAFA0020A3689B1BA360D8
:10416000236833442360BDE8F0872A4600F0D6FA7E
:1041700006460028E0D150462169FFF7B9FE0C231E
:10418000CAF80030A3894FF0FF3043F04003A38109
:10419000E9E700002DE9F04F98468B8907461B069A
:1041A0000D4614469DB010D50B6973B94021FFF739
:1041B00009FF2860286130B90C233B604FF0FF30C5
:1041C0001DB0BDE8F08F40236B61002309932023CD
:1041D0008DF8293030234FF00109CDF80C80DFF83D
:1041E00098818DF82A3023469A4613F8012B0AB19C
:1041F000252AF9D1BAEB040B0BD05B46224629469F
:104200003846FFF76BFF013000F0A780099A5A4447
:1042100009929AF80030002B00F09F8000234FF0A5
:10422000FF32CDE905230AF1010A049307938DF8C3
:1042300053301A935446052214F8011B4E4800F0DF
:104240005FFA049AD8B9D00644BF20238DF85330C2
:10425000110744BF2B238DF853309AF800302A2BD6
:1042600015D0544600204FF00A0C079A214611F849
:10427000013B303B092B4BD9B0B1079214E0A0EBC6
:10428000080309FA03F31343A2460493D2E7039BFE
:10429000191D1B680391002BBBBF5B4242F0020259
:1042A00007930793B8BF049223782E2B0AD1637823
:1042B0002A2B32D1039B02341A1D1B68039243EA56
:1042C000E3730593DFF8B4A003225046217800F091
:1042D00017FA38B14022049BA0EB0A008240134336
:1042E0000134049314F8011B062225488DF8281088
:1042F00000F006FA002836D0224B1BBB039B073385
:1043000023F0070308330393099B334409936AE7B7
:104310000C4601200CFB0232A8E700234FF00A0CE8
:10432000194601340593204610F8012B303A092A2A
:1043300003D9002BC6D00591C4E7044601230CFB2A
:104340000121F0E703AB00932A4638460E4B04A93F
:10435000AFF30080421C0646D6D1AB895B063FF521
:104360002DAF09982CE703AB00932A463846064B3D
:1043700004A900F07DF8EDE78249000888490008AB
:104380008C49000800000000DD4000082DE9F047DE
:10439000164698468A680B6907469342B8BF13468B
:1043A000336091F843200C46DDF820900AB10133C8
:1043B00033602368990642BF33680233336025684F
:1043C00015F0060506D104F1190AE36832689B1A54
:1043D000AB422BDC94F843302268003B18BF01232A
:1043E000920630D44146384604F14302C8470130B2
:1043F00023D02368226903F00603042B14BF002591
:1044000033684FF0000608BFE56804F11A0408BFDE
:10441000ED1A54F8123C08BF25EAE5759342C4BF73
:104420009B1AED18B5421AD1002008E0012352462C
:1044300041463846C847013003D14FF0FF30BDE850
:10444000F0870135C1E73020E11881F843005A1C9C
:1044500094F845102244023382F84310C2E7012346
:10446000224641463846C8470130E6D00136D9E7F2
:104470002DE9FF470F7E9146782F80460C469A46DD
:104480000C9E01F1430207D8622F0AD8002F00F0DA
:10449000D180582F00F0B88004F1420684F84270B1
:1044A0003AE0A7F16303152BF6D801A151F823F0E8
:1044B000094500081D450008994400089944000872
:1044C00099440008994400081D45000899440008D3
:1044D0009944000899440008994400081B460008C4
:1044E00047450008D545000899440008994400084C
:1044F0003D460008994400084745000899440008D3
:1045000099440008DD45000833681A1D1B683260B5
:1045100004F1420684F8423001239CE033682068AD
:10452000191D3160060601D51D6803E04506FBD55F
:10453000B3F90050002D03DA2D236D4284F8433087
:104540000A23584811E021683368080653F8045BD1
:1045500002D4490648BFADB26F2F336014BF0A239F
:1045600008235048002184F843106668002EA66096
:1045700005DB21682E4321F0040121604BD0164653
:10458000B5FBF3F103FB1157C75D06F8017D2F461C
:10459000BB420D46F4D9082B0BD12368DF0708D5A1
:1045A000236961689942DEBF302306F8013C06F1B9
:1045B000FF36921B22614B4621464046CDF800A0B3
:1045C00003AAFFF7E3FE01304AD14FF0FF3004B0F9
:1045D000BDE8F087236843F0200323607827324842
:1045E00084F84570236831681F0651F8045B02D4D3
:1045F0005F0648BFADB23160D90744BF43F0200326
:1046000023601DB11023ADE72648E9E7236823F0B6
:1046100020032360F6E71646BDE733682568181DBA
:10462000616930602E061B6801D5196002E06806DA
:10463000FBD51980002316462361BCE733680021AF
:104640001A1D32601E686268304600F059F808B1E1
:10465000801B606063682361002384F84330AAE70D
:104660003246494640462369D0470130ADD02368E1
:104670009B0713D4E068039B9842B8BF1846A6E78F
:104680000123324649464046D04701309DD001358E
:10469000E36803995B1AAB42F2DCEBE7002504F117
:1046A0001906F5E793490008A4490008884210B5A7
:1046B00001EB020402D98442234607D8431EA142DB
:1046C00008D011F8012B03F8012FF8E70146024446
:1046D0008A4200D110BD13F8014D02F8014DF7E7F1
:1046E00038B50023054D044608462B60FCF7B2F8A8
:1046F000431C02D12B6803B1236038BD1012002087
:10470000034610B5C9B202449342184601D10020B5
:1047100003E0047801338C42F6D110BD2DE9F0415D
:10472000074614460D4621B91146BDE8F041FFF792
:1047300049BC2AB9FFF7DCFB25462846BDE8F081D5
:1047400000F01AF88442064602D8B4EB500FF4D8B1
:1047500021463846FFF736FC804608B94546ECE767
:10476000B4422246294628BF3246FFF7B3FB29460A
:104770003846FFF7BDFBF1E751F8043C181F002B4A
:10478000BCBF0B58C0187047F8B500BFF8BC08BCD8
:104790009E467047F8B500BFF8BC08BC9E467047FF
:1047A000486F6C61206D756E646F0A0A000000002E
:1047B000556E61626C6520746F206372656174650B
:1047C00020537472756374757265205175657565D3
:1047D0000A0A0000537472756374757265206372FF
:1047E00065617465640A0A0053656E646572310020
:1047F00053656E64657232005265636569766572F1
:104800000000000064656661756C745461736B0030
:1048100004480008E1050008000000000000000056
:10482000800000000000000000000000456E74657C
:104830007265642053454E444552315F5461736B39
:104840000A00000048656C6C6F2066726F6D207303
:10485000656E646572310000456E766961646F2033
:1048600061206C6120717565756520636F6E20C372
:10487000A97869746F2C207465726D696E616E64BD
:104880006F2053656E646572315F5461736B000015
:10489000456E74657265642053454E444552325FDF
:1048A0005461736B0A00000048656C6C6F2066727F
:1048B0006F6D2073656E646572320000456E7669B7
:1048C00061646F2061206C6120717565756520637E
:1048D0006F6E20C3A97869746F2C207465726D693E
:1048E0006E616E646F2053656E646572325F5461F1
:1048F000736B0000456E7465726564205265636574
:10490000697665725F5461736B0A00005265636576
:10491000697665642066726F6D2051554555453A3C
:10492000200A20436F756E7465722025640A204C3E
:10493000617267652076616C75653D2025750A207A
:10494000537472696E67202573200A0A0A000000FA
:1049500049444C4500000000000000000000000039
:104960000102030406070809000000000102030415
:1049700002030405060708090A0B0C0D0E0F1010A0
:104980000102232D302B2000686C4C0065666745C2
:1049900046470030313233343536373839414243B7
:1049A0004445460030313233343536373839616268
:0849B00063646566000000006D
:0849B80098B7FF7F0100000029
:0449C00035010008B5
:0449C40011010008D5
:1049C80000127A001000000001000000AAAAAAAA9A
:1049D8001400002000000000D81000204011002022
:1049E800A8110020000000000000000000000000E6
:1049F80000000000000000000000000000000000AF
:104A0800000000000000000000000000000000009E
:104A1800000000000000000000000000000000008E
:04000005080008CD1A
:00000001FF
